:10095A00E4FF53D9BF1209241200031203B87F64BB
:07096A007E001208EA80FE86
:1009240075B28375F1FF75A45F7580A075F2FF75CC
:10093400A50F75900875F3FF75A6E875A00875F402
:10094400FF75A73F75B0C075F5FF75AEFFE4F5C739
:06095400F5E175E240220E
:1008EA007810A60608A60718A60608A607D3781140
:1008FA00E6940018E69400402078127600087664A0
:10090A007813E616187001167813E6184670F1780F
:09091A0011E6161870D71680D4FE
:0109230022B1
:1003B800E47800F208F27808F608F608F67D99FF66
:1003C800FE12061B7D81E4FFFE12061B7F507E0095
:1003D8001208EA7D607FA17E0212061BE4FD7FA25F
:1003E8007E0212061B7D087FA57E0212061B7D3742
:1003F8007FAA7E0212061B7D187FAC7E0212061BA6
:100408007DF07FB77E0212061B7D8D7FBB7E0212B8
:10041800061B7D7D7FA07E0212061B7DC57FAB7EFD
:100428000212061B7F017E001208EA7FBC7E0212C0
:1004380007717808A6077FE7120617E4FD7FC07EDC
:100448000112061BE4FD7FC17E0112061B7D017FA0
:10045800C37E0112061B7D017FC47E0112061B7D2F
:100468001F7FC57E0112061B7DBD7FEC7E01120633
:100478001B7D857F007E0112061B7D0B7401FFFE2C
:1004880012061B7D5E7F027E0112061B7D017F0323
:100498007E0112061B7DA07F047E0112061BE4FD6F
:1004A8007F057E0112061B7D137F067E0112061B47
:1004B8007D0A7F077E0112061B7D017F087E0112DF
:1004C800061B7D017F097E0112061B7D407F0A7E87
:1004D8000112061BE47800F208F27D017F407E01DC
:1004E80012061B7D0A7F167E0112061B7FE07E2EF8
:1004F8001208EA1207697808EFF65401F670227DAF
:10050800017F1A7E0112061B1206157801E22401EA
:10051800F218E23400F2C308E2940218E2940040B0
:10052800B97D047F407E0112061BE47800F208F2D0
:100538007D177F167E0112061B7FE07E2E1208EAC9
:100548001207697808EFF65401F670227D017F1AC8
:100558007E0112061B1206157801E22401F218E248
:100568003400F2C308E2940218E2940040C2E4FDA9
:100578007F817E0112061B7D067F827E0112061B8B
:100588007D137F9E7E0112061B7D047F9B7E0112D8
:10059800061B7D067F9C7E0112061BE4FD7F937E71
:1005A8000112061B7D0D7F947E0112061BE4FD7F60
:1005B800977E0112061B7D097F987E0112061B7D1E
:1005C800027F9A7E0112061B7DF57F427E0312068A
:1005D8001B7DFF7F437E0312061B7FDC7E02120712
:1005E80071780AA6077FBC7E021207717809A607F0
:1005F8007F417E01120771780AA6077F427E0112A9
:0D06080007717809A6077F017E000208EA4D
:060615007F1AE4FD7E01E6
:08061B007802EDF2AB07AA061C
:10062300E4780BF6081208D100000000C292D293BE
:10063300AE02AF03E4FCFD780C1208C5780C120877
:10064300AC7808120899780C1208C5780C1208B80F
:10065300C0007802E2FFE4FCFDFED000EB2FFFEECA
:100663003AFEED39FDEC38FC780C1208C5C29378DC
:100673000C1208ACE4FFFEED5480FDE4FCFBFA79B8
:1006830080F8C31208887004D2928002C292C29189
:100693007F0A7E001208EAD2917F0A7E001208EADE
:1006A300C291780C1208AC7801120899780C1208E0
:0C06B300C5780B06E6C3941840B5D2933E
:0106BF002218
:08076900E47808F67F177E0119
:10077100E4780BF608F608F6D2932FF6EE348018DB
:10078100F6C292C293780CE60830E704D292800256
:10079100C292C2917F0A7E001208EAD2917F0A7E3C
:1007A100001208EAC291780DE625E0790DF718E606
:1007B1003319F71806E6C3941040CAE4F675A50B81
:1007C100759004C2917F0A7E001208EAD291780ED8
:1007D100E625E0F6A292E43308F6790FE71826F64B
:1007E100C291780B06E6C3940840D8D29375A50F41
:0707F100E4F590780EE6FF2D
:0107F80022DE
:10000300E47808F6C2A37F05FE1208EAD2A37F05AF
:100013007E001208EAC2A37F057E001208EA7D80F3
:10002300E4FFFE1206C4E4FD7F02FE1206C47D183F
:100033007F007E011206C47F031206C07D227F0467
:100043007E011206C47D707F067E011206C47D11F7
:100053007F077E011206C47D187F087E011206C445
:10006300E4FD7F0B7E011206C47D227F0C7E01120C
:1000730006C47D707F0E7E011206C47D117F0F7E44
:10008300011206C47D187F107E011206C4E4FD7FB1
:10009300137E011206C47D227F147E011206C47DE5
:1000A300707F167E011206C47D117F177E01120632
:1000B300C47D187F187E011206C4E4FD7F1B7E01F8
:1000C3001206C47D227F1C7E011206C47D787F1E2A
:1000D3007E011206C47D557F1F7E011206C4E4FD16
:1000E3007F207E011206C4E4FD7F237E011206C435
:1000F3007D207F247E011206C47D787F267E011237
:1001030006C47D117F277E011206C47D087F287EE9
:10011300011206C4E4FD7F2B7E011206C47D207FFD
:100123002C7E011206C47D787F2E7E011206C47DCB
:10013300117F2F7E011206C47D0C7F307E011206D3
:10014300C4E4FD7F337E011206C47D227F347E0129
:100153001206C47D707F367E011206C47D557F373B
:100163007E011206C47D217F387E011206C4E4FDA0
:100173007F3F7E011206C47D7F7F457E011206C448
:100183007D027F467E011206C47D1B7F477E0112DE
:1001930006C47D137F487E011206C47D537F497ECA
:1001A300011206C47D027F4A7E011206C47D167FBA
:1001B3004B7E011206C4E4FD7F4C7E011206C4E4AB
:1001C300FD7F4D7E011206C47DC07F4E7E01120667
:1001D300C47D7F7F4F7E011206C47D037F507E0165
:1001E3001206C47D027F517E011206C4E4FD7F52D4
:1001F3007E011206C4E4FD7F537E011206C47D789E
:100203007F547E011206C4E4FD7F557E011206C4AD
:100213007D7D7F567E011206C4E4FD7F577E011269
:1002230006C47D967F587E011206C47D067F597EE3
:10023300011206C4E4FD7F5A7E011206C47DD47FF9
:100243005B7E011206C47D207F5C7E011206C4E43E
:10025300FD7F5D7E011206C4E4FD7F5E7E01120612
:10026300C47D0B7F5F7E011206C4E4FD7F607E01C7
:100273001206C47D017F617E011206C47D447F6244
:100283007E011206C4E4FD7F637E011206C4E4FD11
:100293007F647E011206C47D0C7F657E011206C455
:1002A3007DAA7F717E011206C47D027F727E0112D8
:1002B30006C47D157F7C7E011206C47D337F7D7E5F
:1002C300011206C4E4FD7F667E011206C4E4FD7FCD
:1002D300677E011206C47D0C7F687E011206C47D11
:1002E300597F697E011206C4E4FD7F6B7E0112060D
:1002F300C4E4FD7F6C7E011206C4E4FD7F6D7E01C4
:100303001206C47D137F6E7E011206C47F6E7E01CA
:100313001207F97808A607E4FD7F737E011206C46D
:10032300E4FD7FFD7E1F1206C4E4FD7FFE7E1F12E7
:1003330006C47D537FFF7E1F1206C47D117F437E5B
:10034300011206C4E4FD7F397E011206C47D017FDC
:100353003A7E011206C47D807F3B7E011206C47D76
:10036300097F407E011206C47D917F437E01120600
:10037300C47F441206C07DB17F437E011206C47D53
:10038300917F437E011206C47DFF7F447E011206E6
:10039300C47D117F437E011206C47D207F6A7E01E6
:1003A3001206C47D117F437E011206C47D037F398B
:0503B3007E010206C4FA
:0406C000E4FD7E01D6
:0806C4007800EDF2AB07AA0675
:1006CC00E47809F6081208D100000000C2A6D2A7EF
:1006DC00AE02AF03E4FCFD780A1208C5780A1208D2
:1006EC00AC7808120899780A1208C5780A1208B86A
:1006FC00C0007800E2FFE4FCFDFED000EB2FFFEE23
:10070C003AFEED39FDEC38FC780A1208C5C2A77820
:10071C000A1208ACE4FFFEED5480FDE4FCFBFA7910
:10072C0080F8C31208887004D2A68002C2A6C2A5A3
:10073C007F0A7E001208EAD2A57F0A7E001208EA20
:10074C00C2A5780A1208AC7801120899780A120826
:0C075C00C5780906E6C3941840B5D2A782
:01076800226E
:1007F900E47809F608F608F6D2A72FF6EE34801841
:10080900F6C2A6C2A7780AE60830E704D2A6800293
:10081900C2A6C2A57F0A7E001208EAD2A57F0A7E77
:10082900001208EAC2A5780BE625E0790BF718E66D
:100839003319F71806E6C3941040CAE4F675A6B84A
:1008490075A040C2A57F0A7E001208EAD2A5780CDD
:10085900E625E0F6A2A6E43308F6790DE71826F6B0
:100869007F0A7E001208EAC2A5780906E6C3940841
:0E08790040D1D2A775A6F8E4F5A0780CE6FFF2
:01088700224E
:0300000002097181
:0C097100787FE4F6D8FD75811302095A66
:10088800EB9FF5F0EA9E42F0E99D42F0E89C45F0C6
:01089800223D
:10089900E8600FEFC333FFEE33FEED33FDEC33FCBD
:0308A900D8F12261
:0C08AC00E6FC08E6FD08E6FE08E6FF2278
:0D08B800E6FB08E6F908E6FA08E6CBF822B0
:0C08C500ECF608EDF608EEF608EFF6225F
:1008D100D083D082E493F608740193F608740293EE
:0908E100F608740393F674047325
:00000001FF
